:060000000C9446000C9474
:1000060076000C9400000C9400000C9400000C94F4
:1000160000000C9400000C9400000C947E000C94DC
:1000260000000C9400000C9400000C9400000C944A
:1000360000000C9400000C9400000C9400000C943A
:1000460000000C9400000C9400000C940000102793
:10005600E80364000A00010000100001100001001E
:100066000000000001002D4E414E00494E460000A2
:1000760080C0040004006600010060016A000200FE
:10008600640176000000F894EE27ECBBF1E0FBBFBC
:10009600EBBFE5BFF8E1F1BDE1BD8DE0A2E0BB2716
:1000A600ED938A95E9F780E094E0A0E6ED93019759
:1000B600E9F7E8E7F0E085919591009761F0A59161
:1000C600B59105901590BF01F00105900D9201972D
:1000D600E1F7FB01F0CFEFE5EDBFE4E0EEBFC0E6F0
:1000E600D1E00C94A400EA93FA93EFB7EA93F301F4
:1000F60031963F0109C0EA93FA93EFB7EA93F2010A
:1001060031962F01E2E1E2BFE991EFBFF991E99162
:1001160018951A930A93EA81FB81FA93EA931A9344
:100126000A930E94ED00EE81EA93ED81EA930E9424
:100136004A011A930A930E94790119810881279628
:100146000895E0E0EBBBEABBE8BBE7BBE5BBE4BB7D
:10015600E2BBE1BBE3BFE2BFECBFEFBDE4E0EEBD57
:10016600E0E0EDBDECBDE7BDE6BDEBBDEABDE9BD3A
:10017600E8BDE2BDE5BDE4BDE3BDE4E0E9BFEBB744
:10018600E064EBBFE2E0E5BFE0E0E4BFE0E4EABF45
:10019600E0E0EAB9E0E8E8B9E0E0E0BFE6B9EDB9E9
:1001A600E6BFE0E1EA930E9488017894662477240A
:1001B600E2E1E2BFE1E0F0E04E165F06D8F7E0E0EC
:1001C600EA93E0E0F0E0FA93EA937A926A92A1DF8A
:1001D600EDCFFFCFA991B991E991F99130962AF423
:1001E600E095F09531966DE26D93E89480E197E2A3
:1001F6000DD088EE93E00AD084E6992707D08AE0EE
:1002060005D06E2F10D066276C9308956627E817E1
:10021600F90720F06395E81BF90BC9F7662311F47B
:1002260016F008956894605D6D930895E881E07115
:1002360011F0DC9A01C0DC98E881E07211F0DD9AD9
:1002460001C0DD98E881E07411F0DE9A01C0DE9805
:10025600E881E07811F0DF9A01C0DF9885E08A95A1
:10026600F1F7DA9A8DE08A95F1F7DA988DE08A95BA
:10027600F1F77EC0E881EA93D9DFE881E295E88369
:10028600E881EA93D3DF85E88A95F1F771C0E881C2
:10029600F0E0EC59FE4FE081A981EA0FEA93EADF2C
:1002A6009980888022960895E2E00E94BD01ECE0E4
:1002B600EA93E0DFE1E00E94BD01E0E08E2E9E2E93
:1002C6000895A881AA3011F09B1448F0E0E0EA9363
:1002D60083948A92DCDFA881AA3009F449C09394FA
:1002E600D89AE881EA93C6DFD89842C01A93A981C2
:1002F600BA81ED91A983BA831E2FE03019F01A93C3
:10030600E0DFF5CF188123960895D49AD59AD69A28
:10031600D79AD29AD09AD19ADA98D898D998B8809A
:10032600E881E058E0936601E881E054E0936701D4
:10033600E4E1F0E0FA93EA930E94CF010E94C6013D
:100346000E94C6010E94C601E0E2EA936FDF88ECD4
:1003560090E00197F1F7E8E2EA938CDFE4E0EA93B4
:1003660089DFE5E8EA9386DFE6E0EA9383DF9CDF50
:1003760021960895EA930E943D01E3E0F0E0FA93A6
:10038600EA930C94CF01E0E3EA930E94190188EC0A
:1003960090E00197F1F70895E991F991309639F0D7
:1003A60080ED97E00197F1F7A8953197C9F7089581
:00000001FF
