:040000000C94450017
:100004000C9475000C9400000C9400000C940000F7
:100014000C9400000C9400000C9400000C9400005C
:100024000C9400000C9400000C9400000C9400004C
:100034000C9400000C9400000C9400000C9400003C
:100044000C9400000C9400000C9400000C9400002C
:100054001027E80364000A000100001000011000EA
:100064000100000001002D4E414E00494E460000A3
:1000740080C0020004006600010060016800020004
:10008400640174000000F894EE27ECBBF1E0FBBFC0
:10009400EBBFE5BFF8E1F1BDE1BD8DE0A2E0BB2718
:1000A400ED938A95E9F780E094E0A0E6ED9301975B
:1000B400E9F7E6E7F0E085919591009761F0A59165
:1000C400B59105901590BF01F00105900D9201972F
:1000D400E1F7FB01F0CFEFE5EDBFE4E0EEBFC0E6F2
:1000E400D1E00C94C100EA93FA93EFB7EA93F201DA
:1000F40031962F01C09AE991EFBFF991E9911895D2
:100104001A930A93F201AAE0B0E00E940C022F01B4
:100114005A924A921A930A930E941201EC81EA932A
:10012400EB81EA930E946F011A930A930E949E0145
:100134001981088125960895EA81EA93E981EA9371
:100144000E946F01D201E0E1F7E20E9414020E94D2
:10015400E101E8EEF3E00E94E701E4E6F0E00E944A
:10016400E701EAE0F0E00E94E701EAE0F0E00E9443
:100174002702E05DEA930E9489010C94AB01E0E060
:10018400EBBBEABBE8BBE1E0E7BBE0E0E5BBE4BB1B
:10019400E2BBE1BBE5E0E3BFE0E0E2BFECBFEFBD03
:1001A400EEBDEDBDECBDE7BDE6BDEBBDEABDE9BD11
:1001B400E8BDE2BDE5BDE4BDE3BDEBB7E064EBBF84
:1001C400E3E0E5BFE0E0E4BFE0E4EABFE1E0E9BF8B
:1001D400E0E0EAB9E0E8E8B9E0E0E0BFE6B9EDB9AB
:1001E400E6BFE0E1EA930E94AD01789444245524EB
:1001F400E2B7E136E8F3C098E0E0EA93E0E0F0E04B
:10020400FA93EA937DDFE0E0EA93E1E0F0E0FA9329
:10021400EA9392DFE0E0E2BF44245524E9CFFFCF24
:10022400A991B991E991F99130962AF4E095F09564
:1002340031966DE26D93E89480E197E20DD088EEFB
:1002440093E00AD084E6992707D08AE005D06E2F80
:1002540010D066276C9308956627E817F90720F0F5
:100264006395E81BF90BC9F7662311F416F008959A
:100274006894605D6D930895E881E07111F0DC9AF3
:1002840001C0DC98E881E07211F0DD9A01C0DD98CC
:10029400E881E07411F0DE9A01C0DE98E881E0782C
:1002A40011F0DF9A01C0DF9881E08A95F1F7DA9ABC
:1002B40082E08A95F1F7DA9882E08A95F1F77DC0B9
:1002C400E881EA93D9DFE881E295E883E881EA935B
:1002D400D3DF81E18A95F1F770C0E881F0E0EC5951
:1002E400FE4FE081A981EA0FEA93EADF7980688012
:1002F40022960895E2E00E94EF01ECE0EA93E0DF49
:10030400E1E00E94EF01E0E06E2E7E2E0895A881C8
:10031400AA3011F0791448F0E0E0EA9363946A9209
:10032400DCDFA881AA3009F448C07394D89AE88124
:10033400EA93C6DFD89841C01A93A981BA81ED9196
:10034400A983BA831E2FE03019F01A93E0DFF5CFAA
:10035400188123960895D49AD59AD69AD79AD29A80
:10036400D09AD19ADA98D898D9989880E881E058A8
:10037400E0936601E881E054E0936701E4E1F0E092
:10038400FA93EA930E9400020E94F8010E94F80185
:100394000E94F801E0E2EA936FDF81E28A95F1F7C7
:1003A400E8E2EA938DDFE4E0EA938ADFE5E8EA93A2
:1003B40087DFE6E0EA9384DF9DDF21960895E05D20
:1003C400EA930E948901D20108950E941402DF0178
:1003D400EAE0F0E00E942702F2CFEA930E94620171
:1003E400E3E0F0E0FA93EA930C940002E0E3EA938A
:1003F4000E943E0181E28A95F1F70895E991F9910D
:10040400309639F08AEF90E00197F1F7A89531978B
:10041400C9F70895FA9FF02DEB9FF00DEA9FE02DA8
:10042400F10D08950024112490E1AA0FBB1F001CB4
:10043400111C0E1A1F0A18F40E0E1F1E01C0A16013
:100444009A9599F7FD01D0010895ECDFFD01089517
:00000001FF
