:0C0000000C942A000C9400000C940000EA
:10000C000C9400000C9400000C9400000C94000064
:10001C000C9400000C9400000C9400000C94000054
:10002C000C9400000C9400000C9400000C94000044
:10003C000C9400000C9400000C9400000C94000034
:10004C000C9400000C940000F894EE27ECBBF1E04B
:10005C00FBBFEBBFE5BFF8E1F1BDE1BD8DE0A2E078
:10006C00BB27ED938A95E9F780E094E0A0E6ED9349
:10007C000197E9F7EFE5EDBFE4E0EEBFC0E6D1E0B4
:10008C000C944800EFEFE7BBEFEFE8BB05D0E0E0E6
:10009C00E8BB02D0F9CFFFCFE5E0E3BFE8EFE2BF6A
:1000AC00E8B7E0FFFDCFE0E0E3BFE1E0E8BF089593
:00000001FF
