:0A0000000C943C000C9400000C94DA
:10000A0000000C9400000C9400000C9400000C9466
:10001A0000000C9400000C9400000C9400000C9456
:10002A0000000C9400000C9400000C9400000C9446
:10003A0000000C9400000C9400000C9400000C9436
:10004A0000000C9400000C940000000080C0010025
:10005A002D4E414E00494E46000002000400540055
:10006A000200600156000100640158000000F89483
:10007A00EE27ECBBF1E0FBBFEBBFE5BFF8E1F1BD5A
:10008A00E1BD8DE0A2E0BB27ED938A95E9F780E018
:10009A0094E0A0E6ED930197E9F7E4E6F0E08591B4
:1000AA009591009761F0A591B59105901590BF01C2
:1000BA00F00105900D920197E1F7FB01F0CFEFE512
:1000CA00EDBFE4E0EEBFC0E6D1E00C94A6001A93BF
:1000DA000A93F201AAE0B0E00E94DF012F015A92CE
:1000EA004A921A930A930E948701EC81EA93EB8160
:1000FA00EA9395D01A930A93C1D01981088125965B
:10010A000895EA81EA93E981EA9389D0D201E0E18C
:10011A00F7E20E94E7010E94B301E8EEF3E00E94D1
:10012A00B901E4E6F0E00E94B901EAE0F0E00E94D9
:10013A00B901EAE0F0E00E94FA01E05DEA9389D0B1
:10014A00AAC0E1E0EABBE0E0EBBBE7E0E3BFE0E046
:10015A00E2BFECBFEFBDEEBDEDBDECBDE7BDE6BD58
:10016A00EBBDEABDE9BDE8BDE2BDE7E0E5BDE0E023
:10017A00E4BDE3BDE9BFE0E1EA938FD0E4B5E1363F
:10018A00E8F342B65524D89B02C0D89801C0D89A41
:10019A00E0E0EA93E0E0F0E0FA93EA9398DFE0E047
:1001AA00EA93E1E0F0E0FA93EA93ABDFE0E0E2BF42
:1001BA00E4BD44245524C098E1CFFFCFE881E07123
:1001CA0011F0949A01C09498E881E07211F0959A1E
:1001DA0001C09598E881E07411F0969A01C096984A
:1001EA00E881E07811F0979A01C0979885E08A959E
:1001FA00F1F7929A8DE08A95F1F792988DE08A95B7
:10020A00F1F77EC0E881EA93D9DFE881E295E883D5
:10021A00E881EA93D3DF85E88A95F1F771C0E8812E
:10022A00F0E0E05AFE4FE081A981EA0FEA93EADFA3
:10023A007980688022960895E2E00E94C101ECE08C
:10024A00EA93E0DFE1E00E94C101E0E06E2E7E2E3B
:10025A000895A881AA3011F0791448F0E0E0EA93F1
:10026A0063946A92DCDFA881AA3009F449C07394C6
:10027A00909AE881EA93C6DF909842C01A93A981BE
:10028A00BA81ED91A983BA831E2FE03019F01A932F
:10029A00E0DFF5CF1881239608958C9A8D9A8E9A6D
:1002AA008F9A8A9A889A899A92989098919898801F
:1002BA00E881E058E0936201E881E054E093630149
:1002CA00E4E1F0E0FA93EA930E94D3010E94CA01A2
:1002DA000E94CA010E94CA01E0E2EA936FDF88EC39
:1002EA0090E00197F1F7E8E2EA938CDFE4E0EA9321
:1002FA0089DFE5E8EA9386DFE6E0EA9383DF9CDFBD
:10030A0021960895A991B991E991F99130962AF423
:10031A00E095F09531966DE26D93E89480E197E26D
:10032A000DD088EE93E00AD084E6992707D08AE0B8
:10033A0005D06E2F10D066276C9308956627E817AC
:10034A00F90720F06395E81BF90BC9F7662311F446
:10035A0016F008956894605D6D930895E05DEA93E0
:10036A000E942E01D20108950E94E701DF01EAE00E
:10037A00F0E00E94FA01F2CFEA930E940701E3E05B
:10038A00F0E0FA93EA930C94D301E0E3EA930E9433
:10039A00E30088EC90E00197F1F70895E991F9916B
:1003AA00309639F080ED97E00197F1F7A8953197EB
:1003BA00C9F70895FA9FF02DEB9FF00DEA9FE02D03
:1003CA00F10D08950024112490E1AA0FBB1F001C0F
:1003DA00111C0E1A1F0A18F40E0E1F1E01C0A1606E
:1003EA009A9599F7FD01D0010895ECDFFD01089572
:00000001FF
