:040000000C94390023
:100004000C9400000C9400000C9400000C9400006C
:100014000C9400000C9400000C9400000C9400005C
:100024000C9400000C9400000C9400000C9400004C
:100034000C9400000C9400000C9400000C9400003C
:100044000C9400000C9400000C9400000C9400002C
:100054005374617274696E672E2E2E2E000080C058
:100064000D006001540002006D0162000000F8946C
:10007400EE27ECBBF1E0FBBFEBBFE5BFF8E1F1BD60
:10008400E1BD8DE0A2E0BB27ED938A95E9F780E01E
:1000940094E0A0E6ED930197E9F7E4E6F0E08591BA
:1000A4009591009761F0A591B59105901590BF01C8
:1000B400F00105900D920197E1F7FB01F0CFEFE518
:1000C400EDBFE4E0EEBFC0E6D1E00C946900E0E0EF
:1000D400EBBBEABBE8BBE7BBE5BBE4BBE2BBE1BB14
:1000E400E3BFE2BFECBFEFBDEEBDEDBDECBDE7BDD0
:1000F400E6BDEBBDEABDE9BDE8BDE2BDE5BDE4BDDD
:10010400E3BDE5BFE4BFE9BFEAB9E0E8E8B9E0E090
:10011400E0BFE6B9EDB9E6BFE0E1EA937DD04DD0AA
:10012400E3E0EA93E1E0EA933BD0E0E6F1E0FA931E
:10013400EA9363D0E4EFF1E09ED0F1CFFFCFE88102
:10014400E07111F0939A01C09398E881E07211F084
:10015400949A01C09498E881E07411F0959A01C0D2
:100164009598E881E07811F0969A01C0969885E018
:100174008A95F1F7929A8DE08A95F1F792988DE03D
:100184008A95F1F776C0E881EA93D9DFE881E295B0
:10019400E883E881EA93D3DF85E88A95F1F769C0BB
:1001A400E881F0E0E359FE4FE081A981EA0FEA9388
:1001B400EADF5980488022960895E2E060D0ECE0BE
:1001C400EA93E1DFE1E05BD0E0E04E2E5E2E08959D
:1001D400A881AA3011F0571448F0E0E0EA93439460
:1001E4004A92DEDFA881AA3009F443C05394909A5E
:1001F400E881EA93C8DF90983CC01A93A981BA8138
:10020400ED91A983BA831E2FE03019F01A93E0DF31
:10021400F5CF1881239608958B9A8C9A8D9A8E9A8D
:100224008A9A889A899A9298909891987880E88185
:10023400E058E0936F01E881E054E0937001E4E159
:10024400F0E019D021D020D01FD0E0E2EA9377DF8C
:1002540088EC90E00197F1F7E8E2EA9394DFE4E0B8
:10026400EA9391DFE5E8EA938EDFE6E0EA938BDF39
:10027400A4DF21960895FA93EA930C944E01EA932D
:1002840082DFE3E0F0E0F7CFE0E3EA9358DF88ECC5
:1002940090E00197F1F70895E991F991309639F0DA
:1002A40080ED97E00197F1F7A8953197C9F7089584
:00000001FF
