:0C0000000C9437000C9400000C940000DD
:10000C000C9400000C9400000C9400000C94000064
:10001C000C9400000C9400000C9400000C94000054
:10002C000C9400000C9400000C9400000C94000044
:10003C000C9400000C9400000C9400000C94000034
:10004C000C9400000C940000C0F9A4B0999282F8B2
:10005C0080908883C6A1868EBF0011006001540079
:10006C000000F894EE27ECBBF1E0FBBFEBBFE5BF63
:10007C00F8E1F1BDE1BD8DE0A2E0BB27ED938A95DF
:10008C00E9F780E094E0A0E6ED930197E9F7E6E666
:10009C00F0E085919591009761F0A591B59105904F
:1000AC001590BF01F00105900D920197E1F7FB014E
:1000BC00F0CFEFE5EDBFE4E0EEBFC0E6D1E00C948D
:1000CC00A600E881E064E7B98BE18A95F1F7369AEE
:1000DC00E6B1E071E130E1F3349AE4B1F5B1219687
:1000EC00089524970E9408010A851B8544D0EE834D
:1000FC00FF8347D0E887F98744D0AF01D801EAE005
:10010C00F0E00E94F2009F01C098A0E6B1E0A20FBF
:10011C00B31F3ED0C09AC198A0E6B1E0A40FB51FA2
:10012C0037D0C19AC298E885F9853AD0C29AC3985B
:10013C00EE81FF8135D0C39A0E940F012C96089551
:10014C00EFEFE7BBE8BBE4BBE5BBE1E0E1BBE0E024
:10015C00E2BBE0E4E7B9E3EAE6B9E0B7EF71E0BF90
:10016C0029D0E6B1E071E13019F424D0909AF9CF9E
:10017C009098F6CFFFCFD801EAE0F0E00E9405019D
:10018C000895D801EAE0F0E00E94F2008F01F3CF6D
:10019C00EC91E5BBE1E0F0E0FA93EA930C94E60015
:1001AC00E05AFE4FE081E5BBE1E0F0E0FA93EA9320
:1001BC000C94E600E0E0EA9384DFFA93EA9391CFA3
:1001CC00E991F991309639F080ED97E00197F1F7CC
:1001DC00A8953197C9F708950024112490E1AA0F2E
:1001EC00BB1F001C111C0E1A1F0A18F40E0E1F1E2A
:1001FC0001C0A1609A9599F7FD01D0010895ECDF3B
:10020C00FD0108955A934A933A932A931A930A93A9
:10021C0008955D814C813B812A8119810881089563
:00000001FF
