:0E0000000C9441000C9400000C9400000C9431
:10000E0000000C9400000C9400000C9400000C9462
:10001E0000000C9400000C9400000C9400000C9452
:10002E0000000C9400000C9400000C9400000C9442
:10003E0000000C9400000C9400000C9400000C9432
:10004E0000000C9400001027E80364000A00010071
:10005E00001000011000010001002D4E414E00491C
:10006E004E46000080C0010060016600020064017F
:10007E0072000000F894EE27ECBBF1E0FBBFEBBF83
:10008E00E5BFF8E1F1BDE1BD8DE0A2E0BB27ED9348
:10009E008A95E9F780E094E0A0E6ED930197E9F701
:1000AE00E4E7F0E085919591009761F0A591B59107
:1000BE0005901590BF01F00105900D920197E1F7A3
:1000CE00FB01F0CFEFE5EDBFE4E0EEBFC0E6D1E01F
:1000DE000C948100E881E064E7B98BE18A95F1F731
:1000EE00369A349902C0C09AFCCFC098E4B1F5B1EB
:1000FE000C94AF012297E0E0EBBBEABBE8BBE1E07A
:10010E00E7BBE0E0E5BBE4BBE2BBE1BBE3BFE2BFC4
:10011E00ECBFEFBDEEBDEDBDECBDE7BDE6BDEBBD8D
:10012E00EABDE9BDE8BDE2BDE5BDE4BDE3BDE5BFA9
:10013E00E4BFE9BFEAB9E0E8E8B9E0E0E0BFE0E437
:10014E00E7B9E3EAE6B9E0B7EF71E0BFE0E0EDB999
:10015E00E6BFE0E1EA930E947C01E0E0EA93BADFB9
:10016E008F011A930A933A932A930E94E100E0E0DA
:10017E00EA93EA930E943E013A932A930E946D01FC
:10018E00E1E0EA93A7DFAF015A934A93EA81FB813C
:10019E00FA93EA930E94E100E0E0EA93E1E0EA9349
:1001AE000E943E01E881F981FA93EA930E946D0163
:1001BE00D4CFFFCFA991B991E991F99130962AF454
:1001CE00E095F09531966DE26D93E89480E197E2BB
:1001DE000DD088EE93E00AD084E6992707D08AE006
:1001EE0005D06E2F10D066276C9308956627E817FA
:1001FE00F90720F06395E81BF90BC9F7662311F494
:10020E0016F008956894605D6D930895E881E0712D
:10021E0011F0949A01C09498E881E07211F0959AC9
:10022E0001C09598E881E07411F0969A01C09698F5
:10023E00E881E07811F0979A01C0979885E08A9549
:10024E00F1F7929A8DE08A95F1F792988DE08A9562
:10025E00F1F77EC0E881EA93D9DFE881E295E88381
:10026E00E881EA93D3DF85E88A95F1F771C0E881DA
:10027E00F0E0EC59FE4FE081A981EA0FEA93EADF44
:10028E005980488022960895E2E00E94B101ECE088
:10029E00EA93E0DFE1E00E94B101E0E04E2E5E2E37
:1002AE000895A881AA3011F0571448F0E0E0EA93BF
:1002BE0043944A92DCDFA881AA3009F449C05394D2
:1002CE00909AE881EA93C6DF909842C01A93A9816A
:1002DE00BA81ED91A983BA831E2FE03019F01A93DB
:1002EE00E0DFF5CF1881239608958C9A8D9A8E9A19
:1002FE008F9A8A9A889A899A9298909891987880EB
:10030E00E881E058E0936601E881E054E0936701EC
:10031E00E4E1F0E0FA93EA930E94C3010E94BA016D
:10032E000E94BA010E94BA01E0E2EA936FDF88EC04
:10033E0090E00197F1F7E8E2EA938CDFE4E0EA93CC
:10034E0089DFE5E8EA9386DFE6E0EA9383DF9CDF68
:10035E0021960895EA930E943101E3E0F0E0FA93CA
:10036E00EA930C94C301E0E3EA930E940D0188EC3A
:10037E0090E00197F1F70895E991F991309639F0EF
:10038E0080ED97E00197F1F7A8953197C9F7089599
:00000001FF
