:080000000C943D000C9400007B
:100008000C9400000C9400000C9400000C94000068
:100018000C9400000C9400000C9400000C94000058
:100028000C9400000C9400000C9400000C94000048
:100038000C9400000C9400000C9400000C94000038
:100048000C9400000C9400000C9400001027E803A6
:1000580064000A0001000010000110000100010006
:100068002D4E414E00494E460000010060016600D9
:100078000000F894EE27ECBBF1E0FBBFEBBFE5BF57
:10008800F8E1F1BDE1BD8DE0A2E0BB27ED938A95D3
:10009800E9F780E094E0A0E6ED930197E9F7E2E75D
:1000A800F0E085919591009761F0A591B591059043
:1000B8001590BF01F00105900D920197E1F7FB0142
:1000C800F0CFEFE5EDBFE4E0EEBFC0E6D1E00C9481
:1000D8006D00E0E0EBBBEABBE8BB17B2E0E0C0991B
:1000E800E1E0A1E00E948C00E129E7BBE0E0E5BB8C
:1000F800E4BBE2BBE1BBC89909C0C89907C0C09B73
:1001080002C0C09801C0C09AC89BFECFF4CFFFCFF1
:10011800EE230E2EEA2F19F0EE0F0A94E9F7089550
:00000001FF
