:040000000C94490013
:100004000C9400000C9400000C9400000C9400006C
:100014000C9400000C9400000C9400000C9400005C
:100024000C9400000C9400000C9400000C9400004C
:100034000C9400000C9400000C9400000C9400003C
:100044000C9400000C9400000C9400000C9400002C
:100054001027E80364000A000100001000011000EA
:100064000100C0F9A4B0999282F880908883C6A157
:10007400868EBF0001002D4E414E00494E460000C1
:100084001100600166000100710178000000F8941D
:10009400EE27ECBBF1E0FBBFEBBFE5BFF8E1F1BD40
:1000A400E1BD8DE0A2E0BB27ED938A95E9F780E0FE
:1000B40094E0A0E6ED930197E9F7E4E8F0E0859198
:1000C4009591009761F0A591B59105901590BF01A8
:1000D400F00105900D920197E1F7FB01F0CFEFE5F8
:1000E400EDBFE4E0EEBFC0E6D1E00C9498000E94BE
:1000F40020011C81A12FBB27EAE0F0E00E94FF0051
:100104003E2FA12FB0E0EAE0F0E00E94FA000E2FAB
:10011400D898E02F0E94CC00D89AD998E32F0E9457
:10012400CC00D99A0E942501259608952497EFEFD3
:10013400EBBBEABBE8BBE7BBE0E0E5BBE1E0E4BB6B
:10014400E0E0E2BBE1BBEEEDF3E060E070E00E94D2
:100154001B0100E010E00A93CADF1F5F153630F080
:100164000C3310F40F5F01C000E010E0A02FBB2798
:10017400EAE0F0E00E94FF00309751F4E1E0E5BBD3
:10018400E8EEF3E0FA93EA930E94D700E0E0E5BBDF
:10019400E2CFFFCFF0E0E05AFE4FE081E8BBE5E0BC
:1001A400F0E0FA93EA930C94D700E991F991309630
:1001B40039F080ED97E00197F1F7A8953197C9F7E9
:1001C4000895F195E195F04008950024112490E1FB
:1001D400AA0FBB1F001C111C0E1A1F0A18F40E0EC6
:1001E4001F1E01C0A1609A9599F7FD01D0010895E1
:1001F40012D0EBDF0EF4E5DF0895E894B7FF04C0F6
:10020400A095B09511966894F7FDDBDFDEDFFD0164
:100214000EF4D7DF0895E894F7FF02C0D2DF6894A4
:10022400B7FF06C0A095B095119600F8039400FAA4
:100234000895E883F9836A837B8308953A932A9324
:100244001A930A9308953B812A811981088108959C
:00000001FF
